:020000040800F2
:100000007007002045010008430E0008F70A0008A9
:100010003F0E00082D0900087B1B000800000000AF
:10002000000000000000000000000000391300087C
:10003000C50900080000000023120008ED140008A4
:100040005F0100085F0100085F0100085F01000810
:100050005F0100085F0100085F0100085F01000800
:100060005F0100085F0100085F0100085F010008F0
:100070005F0100085F0100085F0100085F010008E0
:100080005F0100085F0100085F0100085F010008D0
:100090005F0100085F0100085F0100085F010008C0
:1000A0005F0100085F0100085F0100085F010008B0
:1000B0005F0100085F0100085F0100085F010008A0
:1000C0005F0100085F0100085F0100085F01000890
:1000D0005F010008111900085F0100085F010008B6
:1000E0005F0100085F0100085F0100085F01000870
:1000F0005F0100085F0100085F0100085F01000860
:100100005F0100085F0100085F0100085F0100084F
:100110005F0100085F0100085F0100085F0100083F
:100120005F0100085F0100085F0100085F0100082F
:10013000DFF80CD000F0A6FB00480047CD2A0008ED
:10014000700700200648804706480047FEE7FEE7A4
:10015000FEE7FEE7FEE7FEE7FEE7FEE7FEE7FEE777
:100160002D15000831010008F0B480EA0102D40F17
:100170004200B2EB410F02D20246084611464A0045
:1001800042D0C30DDDB2C1F3C752AD1A202D35DA0E
:10019000C1F3160141F4000204B15242C5F1200638
:1001A00002FA06F12A411044B3EBD05F23D0C4B168
:1001B000012DA0EBC35009DCF0BC4FF0004202EA75
:1001C000C352DBB200F5000000F0D0BA400000F1ED
:1001D000807000EBC350A0F1807040EAD1704900FC
:1001E00009E0490841EAC071A0EBC35000F50000E6
:1001F000400800EBC350F0BC00F0AFBA61420122EE
:1002000002EB4101001BF6E7F0BC704781F00041B2
:10021000AAE780F00040A7E780EA010210B502F0EB
:100220000043400022D04A001FD0010E01EB1261B2
:10023000C0F35600C2F3560240F4000042F400023C
:10024000A0FB022000047F39140400D0401C50EAB7
:10025000124001D44000491EC2B20C0604EBD0107B
:10026000401C4008802A02D003E0002010BD20F08E
:100270000100002900DA0020184310BD2DE9FE4FCF
:10028000804681EA0300C00F0C46009021F0004137
:1002900023F00045B8EB0200A94105D240462146B3
:1002A00090461C460B46024623F00040104347D0C0
:1002B000270DC7F30A00C3F30A510290401A0190B8
:1002C00040286BDAC3F3130040F4801B0098924679
:1002D00020B10023D2EB030A63EB0B0B01985946C4
:1002E000C0F14002504600F007FA06460D4650465F
:1002F0005946019A00F01FFA10EB080061410024F2
:1003000087EA115284EAE7731A4340D0009A62B335
:10031000019A012A4FEA075215DC001B61EB02012A
:100320004FF0004202EA0752CDE90042001C41F5BD
:10033000801132462B4600F056FA03B0BDE8F08F2C
:1003400040462146F9E7001B61EB0201001C41F524
:10035000801300185B412018A2F5001747EB03013A
:1003600040EAD570B6196D4111E06D084FEA3606C6
:1003700045EAC0754FEA0752001B61EB0201001C01
:1003800041F5801149084FEA3000001951413246C9
:100390002B4603B0BDE8F04F00F016BA00980122DA
:1003A00040000023D0EB020263EBE073009821468B
:1003B0004FEAE074B8EB000061EB0401E9E783F079
:1003C00000435BE781F0004158E72DE9FE4F81EAE9
:1003D000030404F0004421F0004100944FF0000BAE
:1003E00023F0004350EA01045ED052EA03045BD0DC
:1003F000C3F30A54C1F30A552C44A4F2F334019414
:10040000A0FB0254C1F3130141F48011C3F31303A1
:1004100043F4801301FB024400FB034E840A970A55
:1004200044EA815447EA8357A4FB076802958D0A82
:1004300005FB07854FEA932C04FB0C542705029D0E
:100440004FEA065847EA1637B5EB08056EEB070C7E
:10045000870E920E47EA811742EA8312A7FB020138
:10046000B6EB0B0164EB00042B0D43EA0C335E1872
:1004700044EB1C50DA465146E7FB0201C5F3130476
:100480004FEA0B3343EA14534FEA0432019C43EA28
:100490000603A4F10C040294009CCDE900B400F022
:1004A000A2F903B0BDE8F08F00200146F9E72DE97D
:1004B000F04D81EA030404F0004B21F0004514469E
:1004C0004FF0000A23F0004150EA050220D054EA20
:1004D00001021DD0C5F30A570246C5F31303C1F349
:1004E0001300C1F30A5640F4801543F48013A7EBC0
:1004F0000608101BD64608F2FD3873EB050002D340
:1005000008F1010801E092185B41B8F1000F03DA2D
:1005100000200146BDE8F08D00204FF48011064612
:1005200084460EE0171B73EB050705D3121B63EB24
:10053000050306434CEA010C49084FEA30009218C3
:100540005B4150EA0107EDD152EA030012D082EA82
:10055000040083EA0501084305D0101BAB4106D215
:100560000122002306E000224FF0004302E06FF07A
:10057000010253101AEB06004CEB085110EB0A0075
:1005800041EB0B01BDE8F04D00F01EB90EB5C10FF7
:1005900080EAE0700844CA07002140F233438DE846
:1005A0000E000A460B4600F01EF903B000BD00F035
:1005B000004220F00040C10DC0F3160040F40000DE
:1005C0007F2901DA00207047962903DCC1F19601EA
:1005D000C84001E096398840002AF4D04042704774
:1005E00020F00040C10DC0F3160040F400007F2948
:1005F00001DA00207047962903DCC1F19601C8405A
:10060000704796398840704770B5C1F30A5201F0BF
:1006100000450024C1F3130140F2FF3341F480117F
:100620009A4201DA002070BD40F233439A42A2F2AE
:10063000334203DC524200F06EF800E090402C435D
:10064000F1D0404270BD00F0004230F000400AD0CE
:10065000C10D01F56071C0F3160042EA0151C208F4
:1006600040071143704700200146704701F00043E6
:1006700030B421F0004150EA010206D00A0DA2F583
:100680006072C1F31301002A02DC30BC0020704705
:10069000440F44EAC104C100E01830BC00EBC25072
:1006A00000F05BB8002801DBC0F10040002901DB4D
:1006B000C1F1004181427047002801DBC0F10040D8
:1006C000002901DBC1F100418842704730B50B467B
:1006D000014600202022012409E021FA02F59D4272
:1006E00005D303FA02F5491B04FA02F52844151E46
:1006F000A2F10102F1DC30BD202A04DB203A00FA2D
:1007000002F1002070479140C2F1200320FA03F368
:10071000194390407047202A04DB203A21FA02F066
:100720000021704721FA02F3D040C2F1200291402B
:10073000084319467047202A06DBCB17203A41FAB6
:1007400002F043EAE07306E041FA02F3D040C2F15E
:10075000200291400843194670470029A8BF7047FE
:10076000401C490008BF20F00100704710B4B0FAE7
:1007700080FC00FA0CF050EA010404BF10BC704782
:1007800049B1CCF1200421FA04F411FA0CF118BF9C
:10079000012121430843A3EB0C01CB1D4FEA00616B
:1007A0004FEA102042BF002010BC704700EBC3503E
:1007B00010440029A4BF10BC7047401C490008BF6A
:1007C00020F0010010BC704710B5141E73F1000436
:1007D00008DA401C41F1000192185B411A4301D133
:1007E00020F0010010BD2DE9F04D92469B4611B15D
:1007F000B1FA81F202E0B0FA80F220329046FFF7BF
:100800007BFF04460F4640EA0A0041EA0B015346CB
:100810005A46084313D0114653EA010019D0C8F1D3
:1008200040025046FFF777FF05460E4650465946B0
:100830004246FFF761FF084305D0012004E020464F
:100840003946BDE8F08D0020054346EAE0762C43AA
:1008500037430A986305E40AA0EB08000022FD0A6A
:1008600044EA47540A3002D500200146E9E7010571
:1008700010196941DDE9084500196941BDE8F04DED
:10088000A2E70000064C074D06E0E06840F00103D7
:1008900094E8070098471034AC42F6D3FFF74CFCBD
:1008A00080360008A036000870B521F000430343ED
:1008B0000CD0C1F30A550024D5EB040564EB040306
:1008C000D617AD1AB34102DB0020014670BD2018D7
:1008D00041EB025170BD70B58C1810F8015B15F03A
:1008E000070301D110F8013B2A1106D110F8012BA2
:1008F00003E010F8016B01F8016B5B1EF9D12B07C7
:1009000005D40023521E0DD401F8013BFAE710F87C
:10091000013BCB1A921C03E013F8015B01F8015B69
:10092000521EF9D5A142D8D3002070BD00BFFEE70A
:100930002DE9F04704460D46164614481449086050
:10094000084601684FF07E50FFF760FC8146214663
:10095000FFF762FC074631462846FFF75DFC8246FA
:100960000C4801685046FFF7FFFB814608480168C4
:100970004846FFF751FC80463946FFF7F5FB05492D
:10098000086008460068BDE8F087000048E17A3F4B
:100990002C0000202800002008B50121042000F0D0
:1009A00051FC1820ADF8000010208DF80300032042
:1009B0008DF802006946024800F005F808BD000005
:1009C0000008014070472DE9F0410246002500264D
:1009D000002000230024002791F803C00CF00F052D
:1009E00091F803C00CF0100CBCF1000F03D091F88B
:1009F00002C04CEA050591F800C0BCF1000F31D0EF
:100A0000146800202BE04FF0010C0CFA00F3B1F851
:100A100000C00CEA03069E4220D183004FF00F0C69
:100A20000CFA03F7BC4305FA03FC4CEA040491F802
:100A300003C0BCF1280F06D14FF0010C0CFA00FCEA
:100A4000C2F814C00AE091F803C0BCF1480F05D108
:100A50004FF0010C0CFA00FCC2F810C0401C082832
:100A6000D1D31460B1F800C0BCF1FF0F34DD54687D
:100A700000202EE000F1080C4FF0010808FA0CF3FA
:100A8000B1F800C00CEA03069E4221D183004FF06A
:100A90000F0C0CFA03F7BC4305FA03FC4CEA040400
:100AA00091F803C0BCF1280F05D100F1080C08FA39
:100AB0000CF8C2F8148091F803C0BCF1480F07D1BC
:100AC00000F1080C4FF0010808FA0CF8C2F8108089
:100AD000401C0828CED35460BDE8F08102460020B7
:100AE00093680B400BB1012000E00020704741618A
:100AF00070470161704700BFFEE7000010B54FF47A
:100B000000510948FFF7F5FF4FF400410648FFF791
:100B1000F0FF4FF400410448FFF7E9FF4FF40051A4
:100B20000148FFF7E4FF10BD000C014010B54FF481
:100B300000510748FFF7DDFF4FF400410448FFF77D
:100B4000D6FF4FF400410248FFF7D3FF10BD00006D
:100B5000000C014010B54FF400510448FFF7C9FFE5
:100B60004FF400510148FFF7C2FF10BD000C0140D7
:100B700008B501211C2000F065FB48F26000ADF8CB
:100B8000000048208DF8030069460E48FFF71BFF60
:100B90004FF4C850ADF8000069460A48FFF713FF4C
:100BA0002020ADF8000069460748FFF70CFF012040
:100BB000ADF8000028208DF8030069460148FFF7D2
:100BC00002FF08BD000801400010014010B5FFF70A
:100BD000CFFF10BD10B5044614B1012024490870A0
:100BE0002348007868B320212248FFF777FF58B1E7
:100BF0004FF400412048FFF771FF28B101211E4842
:100C0000FFF76CFF01281CD10A2001F07BFD0020BA
:100C10001749087020211748FFF760FF08B9012025
:100C200010BD4FF400411448FFF758FF08B90220E7
:100C3000F6E701211048FFF751FF012815D10420E4
:100C4000EEE720210B48FFF749FF01280DD1C10332
:100C50000948FFF743FF012807D101210648FFF7A4
:100C60003DFF10B90120024908700020D8E70000BC
:100C700050000020001001400008014008B501218B
:100C8000082000F0DFFA03208DF802000120ADF803
:100C9000000010208DF8030069460248FFF793FE1C
:100CA00008BD0000000C01401CB504460622694640
:100CB0003B2000F081F89DF801009DF8001040EA0B
:100CC000012000B220809DF803009DF8021040EA48
:100CD000012000B260809DF805009DF8041040EAF4
:100CE000012000B2A0801CBD1CB504460622694646
:100CF000432000F061F89DF801009DF8001040EAE3
:100D0000012000B220809DF803009DF8021040EA07
:100D1000012000B260809DF805009DF8041040EAB3
:100D2000012000B2A0801CBD08B500200090012267
:100D30006946752000F040F89DF80000682804D04E
:100D4000054800F077FF002008BD9DF8001003A0C3
:100D500000F070FF0120F7E7383600084D50553697
:100D6000303530204944203D2025640D0A00000024
:100D700070B50024002500BF06E0002500E06D1CD2
:100D8000B5F57A7FFBDB641CB4F57A7FF5DB0021D7
:100D90006B2000F03DF80721192000F039F80621FA
:100DA0001A2000F035F800211C2000F031F818213D
:100DB0001B2000F02DF870BD2DE9F04107460C46D0
:100DC000154601F03DFED02001F010FE01F060FE5E
:100DD000384601F00BFE01F05BFE01F031FED12040
:100DE00001F004FE01F054FE002606E0012001F0AF
:100DF000D5FD2070641C701CC6B2681EB042F5DCC4
:100E0000002001F0CBFD207001F032FEBDE8F08142
:100E100070B505460C4601F013FED02001F0E6FD4A
:100E200001F036FE284601F0E1FD01F031FE2046DA
:100E300001F0DCFD01F02CFE01F01AFE70BD00BFD8
:100E4000FEE7704770B5002100230F22C47804B379
:100E5000154C246804F4E064C4F5E064210AC1F18F
:100E60000403CA40447804FA03F18478144021430F
:100E700009010E4C0678A155047804F01F050124E1
:100E8000AC4005786D11AD0005F1E025C5F80041D5
:100E900009E0047804F01F050124AC40044D0678F5
:100EA000761145F8264070BD0CED00E000E400E04E
:100EB00080E100E070B5002418E004F1B0000021EA
:100EC00000F0A3F90021084600F09FF9002110204E
:100ED00000F09BF9002505E00121002000F095F9C4
:100EE000681CC5B2802DF7DB601CC4B2082CE4DBA3
:100EF00070BD000008B50121082000F0A3F94FF4EF
:100F00002040ADF8000010208DF8030003208DF87C
:100F1000020069463C48FFF756FD4FF420413A482D
:100F2000FFF7E7FD4FF4FA7001F0ECFB0021AE2073
:100F300000F06BF90021084600F067F9002110204D
:100F400000F063F90021402000F05FF90021B0209B
:100F500000F05BF90021812000F057F90021FF200B
:100F600000F053F90021A12000F04FF90021A62044
:100F700000F04BF90021A82000F047F900213F20A4
:100F800000F043F90021C82000F03FF90021D320F0
:100F900000F03BF90021084600F037F90021D52088
:100FA00000F033F90021802000F02FF90021D82033
:100FB00000F02BF90021052000F027F90021D920AD
:100FC00000F023F90021F12000F01FF90021DA20C0
:100FD00000F01BF90021122000F017F90021DB209E
:100FE00000F013F90021302000F00FF900218D20CE
:100FF00000F00BF90021142000F007F90021AF20C8
:1010000000F003F908BD0000000C014070B5044673
:101010000D4605F1B000002100F0F7F8102141EA7B
:101020001410002100F0F1F804F00F00002100F08E
:10103000ECF870BD2DE9F04105460E4617464FF01D
:101040000008F1B2E8B2FFF7E1FF00240CE0144A17
:1010500002EB8711085D012100F0D7F808F10100CB
:1010600000F0FF08601CC4B2102CF0DB721CD1B27F
:10107000E8B2FFF7CBFF00240EE07900491C084AD4
:1010800002EB4111085D012100F0BFF808F10100F9
:1010900000F0FF08601CC4B2102CEEDBBDE8F0814C
:1010A0006A0000202DE9F04707460E469046994613
:1010B00000250024A8F12000C5B27F2F02DD002703
:1010C000B01CC6B2B9F1100F24D131463846FFF733
:1010D0009DFF002408E004EB0511194A505C012132
:1010E00000F093F8601CC4B2082CF4DB701CC1B291
:1010F0003846FFF78BFF002409E004EB05110831A7
:101100000F4A505C012100F080F8601CC4B2082C2A
:10111000F3DB12E031463846FFF778FF00240AE09F
:1011200005EB4501074A02EB4101085D012100F092
:101130006CF8601CC4B2062CF2DBBDE8F08700003E
:10114000A82F0008802D00082DE9FF5F0746914673
:101150001E460E9D4FF0000A002435E0301B401E55
:10116000C1B20A2001F096FDB9FBF0F00A21B0FBF4
:10117000F1F201FB1208BAF1000F14D1701EA04267
:1011800011DDB8F1000F0CD1AB4605EBDB71491056
:1011900001FB0471C8B22B4620220199FFF782FFA0
:1011A00010E04FF0010AAB4605EBDB71491001FB83
:1011B0000471C8B208F13001CAB22B460199FFF799
:1011C00071FF00BF601CC4B2B442C7DBBDE8FF9F23
:1011D0002DE9F04104460F461546984600260FE0DB
:1011E000AA5D434639462046FFF75CFF04F108003C
:1011F000C4B2782C02DD0024B81CC7B2701CC6B281
:10120000A85D0028ECD1BDE8F08170B504460D461C
:101210001DB1E0B200F0F8FC02E0E0B200F0DEFC4C
:1012200070BD704729B1064AD2690243044BDA61A6
:1012300004E0034AD2698243014BDA61704700003F
:101240000010024029B1064A92690243044B9A6198
:1012500004E0034A92698243014B9A61704700009F
:101260000010024030B500210022002400232D4D43
:101270006D6805F00C0121B1042905D0082923D19E
:1012800005E0294D056022E0274D05601FE0254D52
:101290006D6805F47012234D6D6805F480340225E5
:1012A00005EB92421CB9214D554305600BE01D4DE5
:1012B0006D6805F400351DB11C4D5543056002E015
:1012C000194D5543056002E0174D056000BF00BF92
:1012D000144D6D6805F0F0010909154D6B5C05684A
:1012E000DD4045600F4D6D6805F4E061090A104D61
:1012F0006B5C4568DD4085600A4D6D6805F46051A2
:10130000C90A0B4D6B5C4568DD40C560054D6D68D5
:1013100005F44041890B074D6B5CC568B5FBF3F5DF
:10132000056130BD0010024000127A0000093D0046
:101330003C0000204C0000207047000030B589B010
:1013400005460C4601210220FFF76CFF0121052014
:10135000FFF778FF8020ADF8200018208DF82300DB
:1013600003208DF8220008A91648FFF72CFBADF8E2
:101370001850ADF814400020ADF81A00ADF8160072
:1013800005A9114800F02EFA7020ADF804000120E4
:10139000ADF806000020ADF80A000220ADF80C0000
:1013A00001A9094800F060F90821074800F0AEF9EA
:1013B0000121054800F040F90121034800F048F9F7
:1013C00009B030BD000801400004004010B500F035
:1013D00001F810BD0CB50020019000903348006862
:1013E00040F480303149086000BF3048006800F4A4
:1013F000003000900198401C0190009818B90198A5
:10140000B0F5A06FF1D12948006800F4003010B1A8
:101410000120009001E0002000900098012843D1B5
:101420002348006840F01000214908600846006821
:1014300020F0030008600846006840F002000860E1
:101440001A4840681949486008464068486008469C
:10145000406840F4806048600846406820F47C1092
:1014600048600846406840F4E81048600846006854
:1014700040F08070086000BF0C48006800F0007009
:101480000028F9D00948406820F003000749486067
:101490000846406840F00200486000BF03484068CA
:1014A00000F00C000828F9D10CBD0000001002402B
:1014B0000020024010B500F069F800F081F8FFF755
:1014C0006BFA10BD042808D14FF0E021096941F002
:1014D00004014FF0E022116107E04FF0E0210969BB
:1014E00021F004014FF0E0221161704770470000C5
:1014F00010B504466FF00400FFF7E4FFE11704EBBA
:101500005171C1F3C701074A11701046007800EB12
:101510004001C1EBC0104FF6FF7101EAC000024963
:10152000088010BD6A0300206C03002010B513482A
:10153000006840F001001149086008464068104901
:1015400008400E494860084600680E4908400B49AB
:1015500008600846006820F480200860084640685B
:1015600020F4FE0048604FF41F008860FFF72EFF54
:101570004FF000600449086010BD000000100240F8
:101580000000FFF8FFFFF6FE08ED00E008B50121BE
:101590000846FFF747FE01210420FFF753FE06200F
:1015A000ADF8000018208DF8030003208DF802002C
:1015B00069460248FFF707FA08BD0000000801402D
:1015C00030B587B00025002440F2E730ADF81400B4
:1015D0004720ADF810000020ADF81600ADF812005D
:1015E00004A94FF0804000F0FDF86020ADF8000045
:1015F0000120ADF80200ADF806500020ADF808005B
:1016000069464FF0804000F02FF80821C80600F02E
:101610007DF80120ADF80200ADF80640694680076C
:1016200000F082F80821C80600F0CEF801218807F2
:1016300000F00EF807B030BD21B1028842F0800200
:10164000028004E002884FF67F731A4002807047E0
:1016500021B1028842F00102028004E002884FF6C4
:10166000FE731A400280704770B5002400220023E8
:10167000058C4FF6EF7635400584028C8388048B09
:1016800048F6FF752C404FF6FF452C400D884FF66D
:10169000FF7606EA05252C434FF6DF752A400D89B3
:1016A00006EA05152A434D8806EA05152A43154D15
:1016B000A84202D0144DA8421DD14FF67F752A4092
:1016C0004D894FF6FF7606EA05152A434FF6BF759A
:1016D0002A408D8806EA05152A434FF6FF352B4030
:1016E0004FF2FF752B408D8906EA85052B43CD8986
:1016F00006EA85052B4383800483CD880587028411
:1017000070BD0000002C0140003401400A46002159
:10171000018B4FF2FF7319404FF6FF7303EA022368
:10172000194301837047000070B500240022002394
:10173000058C4FF6FF6635400584028C8388848BC8
:101740004FF68F752C404FF6FC752C400D882C43BE
:101750004FF6FF552A400D894FF6FF7606EA05251C
:101760002A434D8806EA05252A43154DA84202D092
:10177000144DA8421DD14FF2FF752A404D894FF6F6
:10178000FF7606EA05252A434FF6FF352A408D8865
:1017900006EA05252A434EF6FF752B404DF6FF75E8
:1017A0002B408D8906EA05152B43CD8906EA0515E0
:1017B0002B4383808483CD888587028470BD00009D
:1017C000002C0140003401400A460021818B4FF675
:1017D000F7731940114381837047018770478187F0
:1017E00070470000002202881D4B98420ED01D4B0E
:1017F00098420BD0B0F1804F08D01B4B984205D0D7
:101800001A4B984202D01A4B984204D14FF68F736C
:101810001A404B881A43174B984207D0164B9842F0
:1018200004D04FF6FF431A40CB881A4302808B88BE
:1018300083850B8803850A4B98420BD0094B98424D
:1018400008D00E4B984205D00D4B984202D00D4B5C
:10185000984201D10B7A03860123838270470000EE
:10186000002C01400034014000040040000800400A
:10187000000C0040001000400014004000400140F7
:10188000004401400048014010B505210E48FFF713
:10189000A4FF642000F036FF0A210B48FFF79DFFEC
:1018A0004FF4FA7000F02EFF0F210748FFF795FF65
:1018B0000A2000F027FF00210348FFF78EFF642075
:1018C00000F020FF10BD00000004004010B51421FE
:1018D0000E48FFF782FF4FF4FA7000F013FF0F215C
:1018E0000A48FFF77AFF642000F00CFF0A2107483E
:1018F000FFF773FF0A2000F005FF00210348FFF700
:101900006CFF642000F0FEFE10BD000000040040EB
:1019100070B50024002540F225512D4800F06CF8E8
:10192000002853D02A4800F023F92A492A4A12787D
:10193000885429480078401C2749087008460078D8
:101940000E283EDA23480078AA2834D108460078C9
:1019500003283BDD1F484078552826D11D48807854
:10196000C01C0978884231DC00BF05E01948005DE1
:101970002844C5B2601CC4B217480078801EA0423B
:10198000F4DA15480078401E1249085CA84204D1D8
:10199000002501201149087002E000200F4908705D
:1019A000002500200C49087010E000200B49087049
:1019B000094908700AE000200849087006490870C3
:1019C00004E00020054908700349087070BD00005C
:1019D000003801405800002055000020540000202D
:1019E00021B1828942F40052828104E082894DF65D
:1019F000FF731A408281704770B5024600240023AD
:101A00000025002040F66A16B14200D100BFC1F3A4
:101A1000421501F01F03012606FA03F3012D02D13E
:101A20009689334006E0022D02D1168A334001E048
:101A3000968A33400C12012606FA04F416883440C4
:101A400013B10CB1012000E0002070BDF0B50346D9
:101A5000002400260025002040F66A17B94200D174
:101A600000BF1846C1F3421401F01F06012707FA10
:101A700006F5012C01D10C3004E0022C01D110300C
:101A800000E014301AB107682F43076002E00768CE
:101A9000AF430760F0BD00002DE9F04786B0054672
:101AA0000E460024A24600BFA1460027B08900B11F
:101AB00000BF2F462C8A4CF6FF700440F088044388
:101AC0002C82AC894EF6F3100440B088318908436B
:101AD000718908430443AC81AC8A4FF6FF4004404F
:101AE000B0890443AC8201A8FFF7BCFB1F488742C2
:101AF00002D1DDF810A001E0DDF80CA0A88900F407
:101B0000004040B10AEBCA0000EB0A1031684900FE
:101B1000B0FBF1F807E00AEBCA0000EB0A103168ED
:101B20008900B0FBF1F86420B8FBF0F00401200953
:101B3000642101FB1089A88900F4004040B13220E3
:101B400000EBC900B0FBF1F000F00700044308E02F
:101B5000322000EB09106421B0FBF1F000F00F001F
:101B600004432C8106B0BDE8F08700000038014036
:101B700001468888C0F30800704700BFFEE70000F8
:101B80002DE9F04105462C464FF400511248FEF76E
:101B9000AEFF00261CE0274607F08007802F04D107
:101BA00039020D48FEF7A5FF04E04FF400410A4852
:101BB000FEF79DFF6006040E4FF400510648FEF745
:101BC00098FF4FF400510448FEF791FF701CC6B215
:101BD000082EE0DBBDE8F081000C014010B50446A2
:101BE000FEF78CFF7820FFF7CBFFFEF7B3FF002056
:101BF000FFF7C6FFFEF7AEFF2046FFF7C1FFFEF777
:101C0000A9FFFEF793FF10BD10B50446FEF776FF5F
:101C10007820FFF7B5FFFEF79DFF4020FFF7B0FFEC
:101C2000FEF798FF2046FFF7ABFFFEF793FFFEF7A6
:101C30007DFF10BD0FB4054B10B503A9044A0298EF
:101C400000F08EF810BC5DF814FB0000F9270008C6
:101C500064000020490050EAC12018BF04204A0D4A
:101C600018BF40F0010040F2FF72B2EB515F08BFB5
:101C700040F00200012808BF052070472DE9F0411F
:101C80004F1E00EBC7010446D1E9000115461E4670
:101C900037F006020DD02A463346FEF796FB7F1E2C
:101CA00004EBC703D3E90023FEF7E8FA37F0060296
:101CB000F1D1022F25D0042F13D0062F18BFBDE875
:101CC000F0812A463346FEF780FBD4E90A23FEF76B
:101CD000D5FA2A463346FEF778FBD4E90823FEF707
:101CE000CDFA2A463346FEF770FBD4E90623FEF709
:101CF000C5FA2A463346FEF768FBD4E90423FEF70B
:101D0000BDFA2A463346FEF760FBD4E90223FEF70C
:101D1000B5FA2A463346FEF758FBD4E90023BDE85E
:101D2000F041FEF7ABBA0122FEF7BEBDFEF7A6BA40
:101D3000024A00201107FEF7B7BD000001FDFFFFBA
:101D400002E008C8121F08C1002AFAD17047704784
:101D5000002001E001C1121F002AFBD170470000E2
:101D60002DE9FF4F89B09B460446002506E0252853
:101D70000BD05A460B999047641C6D1C20780028A4
:101D8000F5D10DB02846BDE8F08F0027B8460122F6
:101D9000474900E0074314F8013F203B02FA03F0F3
:101DA0000842F7D120782E2819D114F8010F47F0F6
:101DB00004072A280ED06FF02F022078A0F13001FE
:101DC00009290CD808EB880102EB410100EB01085E
:101DD000641CF2E70A98641C50F8048B0A9020787F
:101DE0000028CED0642808D0692806D075281ED0D7
:101DF0005A460B9990476D1C58E00A994FF00A0912
:101E000001C90A91002802DA40422D2102E0390579
:101E100004D52B218DF82010012103E0F90704D00F
:101E20002021F7E78A4608AE0DE00021FAE70A997B
:101E30004FF00A0901C90A91F7E74946FEF746FC47
:101E4000303106F8011D0028F7D1ADEB060000F196
:101E50002009780701D44FF00108C84502DDA8EB3E
:101E6000090000E000208046002706E008A85A4646
:101E7000C05D0B9990476D1C7F1C5745F6DB04E055
:101E800030205A460B9990476D1CB8F10001A8F11B
:101E90000108F5DC05E016F8010B5A460B9990474E
:101EA0006D1CB9F10001A9F10109F4DC641C65E7BE
:101EB000092801002DE9F84F04460D4621F00040A5
:101EC00000917349814211DC7249884201DC06D1DC
:101ED0002CB120462946BDE8F84FFFF724BF6E48D5
:101EE000002DCCBF6D496E49BDE8F88F6D49814228
:101EF00011DD6D498142D8BF4FF0FF366DDD2046C0
:101F00002946FFF7A7FE042808BFFFF711FF204668
:101F10002946BDE8F88F6549654F25F000458142A7
:101F200033DD6449814219DD002632464FF080439B
:101F300020462946FEF7A2F980468A46012220461D
:101F40002946FEF7B1FC00223B46FEF738FA42462E
:101F50005346FEF7ACFA04460D463EE00126002249
:101F6000BA463B4620462946FEF788F980460F468A
:101F70000022534620462946FEF721FA42463B46B8
:101F8000FEF795FA04460D4627E04B4981421BDDDA
:101F9000DFF828A102260022534620462946FEF7F4
:101FA00014FA00223B46FEF769F980460F460022EC
:101FB000534620462946FEF702FA42463B46FEF7C4
:101FC00076FA04460D4608E0032622462B460020FA
:101FD0003B49FEF76CFA04460D4622462B46104656
:101FE0001946FEF7F2F98B46824602460B46FEF78B
:101FF000ECF907460246334888460B4606217844EA
:10200000FFF73CFE52465B46FEF7DFF982462E485C
:102010008B463A46434605217844FFF72FFE3A4661
:102020004346FEF7D2F902460B46002E504659466B
:102030000CDAFEF723F922462B46FEF7C6F901B06B
:1020400022462B46BDE8F04FFEF7BCB9FEF716F965
:1020500022462B46FEF7B9F91C4A7A4402EBC60326
:10206000D3E90023FEF7ABF922462B46FEF7A7F98A
:10207000174A7A4402EBC603D3E90023FEF7A2F91C
:10208000009A002AB8BF81F00041BDE8F88F000037
:10209000000010440000F07F182D4454FB21F93F4C
:1020A000FB21F9BF0000DC3F0000203E0000F33FB1
:1020B0000000F03F0000E63F008003400000F83FD2
:1020C0000000F0BFFE150000BC1500005A1500000E
:1020D000221500002DE9F04D9446CCF1000423F0C8
:1020E00000464CEA0404524F46EAD4749A468846A5
:1020F00021F00042BC4206D8454240EA050442EACB
:10210000D474BC4204D9BDE8F04D6246FFF70EBE60
:10211000AAF14055A5F17F6555EA0C040BD00224C5
:1021200004EAAA74434DDFF810E144EAD87452EA95
:10213000000B04D00CE0BDE8F04DFFF7BBBE002C57
:1021400014BF012CBDE8F08D022C30D0032C32D00E
:1021500056EA0C0B0AD0BE4220D1BA4209D126F071
:10216000804622F080423346114617E000291ADBF0
:1021700025E0DFF8C8B0FB44002C04BFDBE9000118
:10218000BDE8F08D012C02BFDBE9000181F00041C8
:10219000BDE8F08D022C0AD0032C0CD0BA4212D12B
:1021A000B8F1000F0BDA23482549BDE8F08D284629
:1021B0002449BDE8F08D28467146BDE8F08D1D48E4
:1021C0002149BDE8F08D921B12153C2AC4BF194865
:1021D0001D490EDCBAF1000FBEBF12F13C0F00200A
:1021E000014606DB6246FEF762F921F00041FFF787
:1021F00061FE002C08BFBDE8F08D012C04BF81F00A
:102200000041BDE8F08D114A114B022C07D0FEF7BA
:10221000D6F82A46BDE8F04D0A4BFEF7D0B8FEF7D7
:10222000CEF82A46BDE8F04D064BFEF7CBB80000CD
:102230000000F07F182D4454FB2109C0B6140000A3
:10224000FB21F9BFFB210940FB21F93F075C143357
:1022500026A6A13C10B5044608210748FEF747FC16
:1022600021464FF08040FFF7B8FA00214FF0804040
:10227000FFF7B5FA10BD00000008014010B5044694
:1022800010210748FEF733FC21464FF08040FFF74E
:10229000A6FA00214FF08040FFF79FFA10BD000022
:1022A0000008014010B5044601210548FEF721FC55
:1022B000A0B200F027FA01210148FEF718FC10BD7A
:1022C000000C014010B500248D4800688D4908605D
:1022D0000020FEF77FFC0446012C2CD1FEF7EAFD1E
:1022E000102389A200210846FEF772FF102387A25F
:1022F00000211846FEF76CFF102385A2002146201E
:10230000FEF766FF002202211046FEF793FE01222F
:1023100002211020FEF78EFE022211462020FEF739
:1023200089FE032202213020FEF784FE04220221CE
:102330004020FEF77FFE022C7FD1FEF7BBFD10236D
:1023400074A200210846FEF743FF00220221104636
:10235000FEF770FE012202211020FEF76BFE05221F
:1023600002212020FEF766FE062202213020FEF721
:1023700061FE6948C07840B9102368A2042100209A
:10238000FEF726FF00F090FA57E06348C078002877
:102390004BD0102364A204210020FEF719FF5E48F1
:1023A000C078462802DA00F07FFA46E05A48C07842
:1023B0005A2802DD00F08FFA3FE05748C0785A28CB
:1023C0003BDA5548C078462837DD534880793C28A9
:1023D0000BDD51488079462807DA00F04EFA642078
:1023E00000F090F900F061FC27E04B488079462826
:1023F0000BDD49488079502807DA00F033FA642071
:1024000000F080F900F051FC17E043488079502833
:1024100013DD414880795A280FDA00F023FA64204E
:1024200000F070F900F041FC07E0434935480068CE
:10243000FEF742F901D200F015FA042C5FD1FEF745
:1024400039FD10233DA200210846FEF7C1FE0022FF
:1024500002211046FEF7EEFD012202211020FEF7B8
:10246000E9FD052202212020FEF7E4FD06220221DB
:102470003020FEF7DFFD41E02748C07840B9102347
:102480002FA204210020FEF7A3FE00F00DFA35E094
:102490002148C07858B3102323A204210020FEF75E
:1024A00097FE1D48C078462802DA00F0FDF925E0C5
:1024B0001948C0785A2802DD00F00DFA1EE01648CF
:1024C000C0785A281ADA1448C078462816DD12480F
:1024D0000079322805DD10480079462801DA00F03D
:1024E000E4FB0D480079462802DD00F0BBF905E069
:1024F00009480079322801DA00F0BFF9BCE710BDC5
:10250000180000203800002032000000443A00008B
:10251000413A0000453300005800002053656172C5
:102520006368696E670000005461726765742046D5
:102530006F756E64000000000000F041453400003B
:10254000736561726368696E67000000F8B54021C9
:102550006348FEF7C3FA90B14FF400616048FEF79C
:10256000BDFA60B14FF480515D48FEF7B7FA30B163
:102570004FF480715A48FEF7B1FA00282BD10A2097
:1025800000F0C0F840215648FEF7A8FA20BB554895
:102590000068FEF758F80646534A544BFDF76EFEA6
:1025A0000446FEF763F84F49086051494D480068FA
:1025B000FEF782F802D800204A49086049480068BE
:1025C000FEF70EF804461020032322460021009057
:1025D0002020FEF7B9FD7FE04FF400614048FEF790
:1025E0007DFA20BB43480068FEF72DF80646424AB4
:1025F000424BFDF743FE0446FEF738F83D490860BC
:102600003B493C480068FEF757F802D8384839493A
:10261000086038480068FDF7E3FF044610200323F4
:102620002246042100902020FEF78EFD54E04FF456
:1026300080512B48FEF752FA20BB2E480068FEF767
:1026400002F806462C4A2D4BFDF7B9FE0446FEF76C
:102650000DF828490860002126480068FEF722F896
:1026600002D800202349086022480068FDF7B8FF1F
:102670000446102003232246042100902020FEF768
:1026800063FD29E04FF480711548FEF727FA18BB67
:1026900014480068FDF7D7FF0646134A134BFDF7B1
:1026A0008EFE0446FDF7E2FF0E49086000210D484A
:1026B0000068FDF7F7FF02D811480A490860094889
:1026C0000068FDF78DFF04461020032322460021F9
:1026D00000902020FEF738FD00F03AF8F8BD000029
:1026E00000080140300000209A9999999999B93FC2
:1026F0000000704234000020CDCCCCCCCCCCFC3FD0
:10270000000040400146114A12884A434FF0E0233E
:102710005A6100229A611A46126942F001021A6156
:1027200000BF4FF0E022106900F001021AB100F47E
:102730008032002AF5D04FF0E022126922F0010227
:102740004FF0E0231A6100229A6170476C03002069
:102750002DE9F04120212248FEF7C0F900283DD1A3
:102760000A20FFF7CFFF20211D48FEF7B7F9002808
:1027700034D11C491C480068FDF79EFF0AD2194954
:1027800019480068FDF742FD0546FDF710FF0446B5
:1027900000F0ACF8134914480068FDF783FF06D237
:1027A00011480068FDF703FF044600F088F8642034
:1027B000FFF7A8FF0D480068FDF745FF05460C4AE6
:1027C0000C4BFDF702FE0746FDF71EFF044600F026
:1027D0005FF86420FFF796FF00F067FABDE8F0812C
:1027E000000801400000F0413400002030000020CB
:1027F0002B8716D9CEF7A33F00BF054A128802F0F7
:102800004002002AF9D0C2B2014B1B1D1A8070474A
:102810000038014010B5044608210748FEF769F961
:1028200021464FF08040FEF7D8FF00214FF0804056
:10283000FEF7D5FF10BD00000008014010B50446AA
:1028400010210748FEF755F921464FF08040FEF76A
:10285000C6FF00214FF08040FEF7BFFF10BD000013
:102860000008014010B54FF4FA70FFF707FD012092
:10287000FFF748FF00F027FA10BD10B54FF4FA70CB
:10288000FFF7DCFF0120FFF73DFF00F01CFA10BD51
:1028900010B504464FF4FA70FFF7D0FFA0B2FFF76F
:1028A00031FF00F010FA10BD10B54FF4FA70FFF7C9
:1028B000D1FC0120FFF726FF00F005FA10BD10B58E
:1028C00004464FF4FA70FFF7C5FCA0B2FFF71AFFF9
:1028D00000F0F9F910BD10B54FF4FA70FFF79AFF48
:1028E0000120FFF70FFF00F0EEF910BD10B5044610
:1028F0004FF4FA70FFF78EFFA0B2FFF703FF00F06E
:10290000E2F910BD10B580200949086000F012F806
:1029100040200749091F086000F00CF840200449D6
:10292000086000F007F880200149091F086010BD09
:10293000140C0140002001E0411CC8B20A28FBDB56
:102940007047000008B501210820FEF77BFCC0207D
:10295000ADF8000003208DF8020014208DF803006C
:1029600069460348FEF72FF800F082F808BD000022
:10297000000C014010B5802007490860FFF7DAFF1E
:10298000402005490860FFF7D5FF40200249091D96
:102990000860FFF7CFFF10BD100C014070B5054671
:1029A0000024002616E06006040E40200E49086050
:1029B000FFF7C0FF0C480838006800F0800008B13D
:1029C000601CC4B240200849091D0860FFF7B2FF2F
:1029D000701CC6B2082EE6DB15B9FFF7CBFF01E08D
:1029E000FFF790FF204670BD100C014070B5044603
:1029F000002520E004F0800018B180200F49086015
:102A000003E080200D49091D0860FFF793FF402077
:102A10000A490860FFF78EFF40200849091D086039
:102A2000072D02D18020091F08606006040EFFF701
:102A300081FF681CC5B2082DDCDB70BD100C0140A5
:102A400010B580200949086040200860FFF772FF38
:102A500080200649091D0860FFF76CFF40200349EC
:102A6000091D0860FFF766FF10BD0000100C014053
:102A700010B58020054908604020091F0860FFF755
:102A800059FF80200149091F086010BD140C014046
:102A900010B580200C490860FFF74CFF40200A4920
:102AA0000860FFF747FF08480838006800F080001A
:102AB00008B1012400E0002440200349091D0860FA
:102AC000FFF738FF204610BD100C01402DE9F04FF4
:102AD00087B04820FEF70CFDFEF7ECFCFEF776F819
:102AE0004FF4E13000F0FCF8FEF704FA41F61F4124
:102AF000C720FEF723FCFFF725FFFEF7DBF9FEF703
:102B000037F9FEF7BBF8072200211020FEF792FAF2
:102B1000082200212020FEF78DFA09220021302012
:102B2000FEF788FA0A2200214020FEF783FA0B22E2
:102B300000215020FEF77EFA102345A20221062034
:102B4000FEF746FBFEF7F0F801287CD179E0FFF7AD
:102B5000B9FBFFF7FBFC04A8FEF7A6F802A8FEF7F6
:102B6000C3F8BDF91000FDF711FD064600223C4BED
:102B7000FDF79DFC0446FDF779FD3A490860BDF973
:102B80001200FDF703FD06460022354BFDF78FFCD2
:102B90000446FDF76BFD34490860BDF91400FDF7EC
:102BA000F5FC064600222E4BFDF781FC0446FDF79E
:102BB0005DFD2E49086008460068FDF744FD80462B
:102BC000894629480068FDF73EFD824642464B464D
:102BD000FFF780FA0646264A264BFDF768FC0446B6
:102BE0000022254BFDF7F1FBCDE90001FDF73EFD8D
:102BF000224908602248B0F90000FDF7C7FC0646EC
:102C00004FF066321F4BFDF752FC0446FDF72EFDD8
:102C10001D4908601D480268084601681748006899
:102C2000FDF786FE1A49086008460068FDF7D8FCE3
:102C30000446102007232246002100904620FEF77C
:102C400083FA84E7FFE7002007B0BDE8F08F0000BB
:102C500055502034204B302032204B31203300009F
:102C60000000D0400C0000201000002014000020C4
:102C70001F85EB51B81E09400080664018000020F7
:102C800006000020666630401C0000202400002062
:102C90002000002010B50246012000E050430B1E2A
:102CA000A1F10104E1B2F9D110BD10B54FF4C87023
:102CB000FFF7F8FA4FF4C870FFF724FDFEF7E4FDC4
:102CC000FEF704FE10BD10B500214FF08040FEF766
:102CD00086FD00214FF08040FEF77FFD10BD000013
:102CE00010B586B00446012144F20400FEF7AAFAAA
:102CF0004FF40070ADF8140003208DF81600182072
:102D00008DF8170005A91C48FDF75DFE4FF48060A3
:102D1000ADF8140004208DF8170005A91648FDF73A
:102D200052FE25208DF8000003208DF801008DF85B
:102D3000020001208DF803006846FEF783F8019435
:102D40000020ADF80800ADF80A00ADF80C00ADF8B1
:102D500010000C20ADF80E0001A90848FEF79CFEFB
:102D6000012240F225510548FEF770FE012103487B
:102D7000FEF736FE06B010BD0008014000380140E5
:102D80000000000000000000002F0000000007000D
:102D9000070000147F147F1400242A7F2A12006287
:102DA0006408132300364955225000000503000033
:102DB00000001C224100000041221C000014083EBB
:102DC00008140008083E0808000000A06000000881
:102DD00008080808000060600000002010080402D5
:102DE000003E5149453E0000427F40000042615193
:102DF0004946002141454B31001814127F1000272D
:102E000045454539003C4A494930000171090503EF
:102E100000364949493600064949291E0000363620
:102E20000000000056360000000814224100001483
:102E30001414141400004122140800020151090660
:102E400000324959513E007C1211127C007F4949E1
:102E50004936003E41414122007F4141221C007F12
:102E600049494941007F09090901003E4149497A20
:102E7000007F0808087F0000417F4100002040419A
:102E80003F01007F08142241007F40404040007F06
:102E9000020C027F007F0408107F003E4141413E4A
:102EA000007F09090906003E4151215E007F091992
:102EB00029460046494949310001017F0101003F8F
:102EC0004040403F001F2040201F003F4038403F0F
:102ED0000063140814630007087008070061514973
:102EE000454300007F41410000552A552A55000006
:102EF00041417F0000040201020400404040404084
:102F0000000001020400002054545478007F48441B
:102F1000443800384444442000384444487F003852
:102F20005454541800087E0901020018A4A4A47C7B
:102F3000007F080404780000447D40000040808445
:102F40007D00007F102844000000417F4000007C8D
:102F500004180478007C0804047800384444443899
:102F600000FC242424180018242418FC007C0804E5
:102F7000040800485454542000043F444020003CBE
:102F80004040207C001C2040201C003C4030403C45
:102F9000004428102844001CA0A0A07C00446454D5
:102FA0004C44141414141414000000000000000019
:102FB0000000000000000000000000F80000000019
:102FC000000000333000000000100C06100C06005A
:102FD000000000000000000040C07840C0784000C1
:102FE000043F04043F040400007088FC0830000023
:102FF000001820FF211E0000F008F000E01800007B
:1030000000211C031E211E0000F008887000000033
:103010001E2123241927211010160E000000000085
:103020000000000000000000000000E018040200A2
:10303000000000071820400000020418E000000013
:103040000040201807000000404080F08040400011
:103050000202010F01020200000000F00000000067
:103060000101011F0101010000000000000000003B
:1030700080B07000000000000000000000000000B0
:103080000001010101010101000000000000000039
:1030900000303000000000000000000080601804D4
:1030A000006018060100000000E010080810E000B1
:1030B000000F102020100F00001010F8000000007A
:1030C0000020203F202000000070080808887000C1
:1030D0000030282422213000003008888848300041
:1030E0000018202020110E000000C02010F8000061
:1030F00000070424243F240000F8088888080800FA
:103100000019212020110E0000E01088881800000E
:10311000000F112020110E0000380808C8380800E0
:103120000000003F00000000007088080888700060
:10313000001C222121221C0000E010080810E000E1
:103140000000312222110F00000000C0C00000006A
:10315000000000303000000000000080000000008F
:103160000000806000000000000080402010080087
:103170000001020408102000404040404040400050
:10318000040404040404040000081020408000002B
:103190000020100804020100007048080808F00030
:1031A0000000003036010000C030C828E810E00000
:1031B0000718272423140B000000C038E00000008B
:1031C000203C23020227382008F8888888700000F5
:1031D000203F202020110E00C030080808083800C9
:1031E000071820202010080008F808080810E00040
:1031F000203F202020100F0008F88888E8081000E1
:10320000203F20202320180008F88888E8081000B4
:10321000203F200003000000C030080808380000EC
:1032200007182020221E020008F808000008F808ED
:10323000203F210101213F20000808F80808000074
:103240000020203F2020000000000808F8080800A7
:10325000C08080807F00000008F888C0281808001F
:10326000203F20012638200008F808000000000058
:10327000203F20202020300008F8F800F8F808004F
:10328000203F003F003F200008F830C00008F80849
:10329000203F200007183F00E01008080810E00059
:1032A0000F10202020100F0008F808080808F00070
:1032B000203F210101010000E01008080810E00093
:1032C0000F18242438504F0008F888888888700028
:1032D000203F2000030C30200070880808083800C8
:1032E0000038202121221C00180808F808081800BE
:1032F0000000203F2000000008F808000008F8083F
:10330000001F202020201F000878880000C83808EF
:10331000000007380E010000F80800F80008F80067
:10332000033C0700073C0300081868808068180801
:1033300020302C03032C30200838C800C83808007F
:103340000000203F2000000010080808C8380800CE
:103350002038262120201800000000FE0202020072
:103360000000007F40404000000C30C00000000022
:10337000000000010638C00000020202FE0000004A
:10338000004040407F0000000000040202020400F0
:10339000000000000000000000000000000000002D
:1033A0008080808080808080000202040000000015
:1033B000000000000000000000008080808000000D
:1033C0000019242222223F2008F8008080000000FB
:1033D000003F112020110E000000008080800000BE
:1033E000000E112020201100000000808088F800CD
:1033F000000E112020103F200000808080800000FF
:10340000001F222222221300008080F08888881862
:103410000020203F2020000000008080808080006D
:10342000006B94949493600008F800808080000002
:10343000203F210000203F200080989800000000DD
:103440000020203F2020000000000080989800000D
:1034500000C08080807F000008F80000808080002D
:10346000203F24022D302000000808F80000000052
:103470000020203F2020000080808080808080000D
:10348000203F20003F20003F80800080808000009F
:10349000203F210000203F2000008080808000002D
:1034A000001F202020201F0080800080800000005E
:1034B00080FFA12020110E0000000080808080008D
:1034C000000E112020A0FF8080808000808080007E
:1034D00020203F21200001000000808080808000AB
:1034E0000033242424241900008080E08080000020
:1034F0000000001F2020000080800000008080006D
:10350000001F202020103F208080800000808080CD
:1035100000010E300806010080800080008080805D
:103520000F300C030C300F00008080008080800082
:103530000020312E0E3120008080800000808080AD
:1035400080818E701806010000808080808080005D
:103550000021302C2221300000000000807C02027B
:1035600000000000003F404000000000FF0000009D
:1035700000000000FF0000000002027C800000004C
:103580000040403F00000000000601010202040468
:1035900000000000000000004FBB610567ACDD3F8C
:1035A000182D4454FB21E93F9BF681D20B73EF3F6A
:1035B000182D4454FB21F93FE2652F227F2B7A3CE2
:1035C000075C143326A6813CBDCBF07A8807703C9B
:1035D000075C143326A6913CC4EB98999999C9BF0E
:1035E000711623FEC671BCBF6D9A74AFF2B0B3BF43
:1035F0009AFDDE522DDEADBF2F6C6A2C44B4A2BF03
:103600000D5555555555D53FFF8300922449C23F6E
:103610006E204CC5CD45B73F513DD0A0660DB13FA2
:10362000EB0D76244B7BA93F11DA22E33AAD903FB4
:1036300000000000000000004D50553630353020AD
:10364000646563746563746564206572726F72216A
:103650000D0ABCECB2E2B2BBB5BD4D5055363035AB
:1036600030C4A3BFE9A3ACC7EBBCECB2E9C4A3BFB1
:10367000E9D3EBBFAAB7A2B0E5B5C4BDD3CFDF0095
:10368000A03600080000002070030000D6080008E3
:10369000003800087003002000040000501D0008DE
:1036A000012405180AD7A33B2D0102030404700A64
:1036B00006070809020406080155AA5507508206A4
:1036C000000F121010D0FF9014E4AFA4A4A4AFE434
:1036D0000413040312FF000B11894B2A1A0E1A2A35
:1036E0004B88802C101090010009121010FF101050
:1036F00011161010082060203F1010100713030C43
:10370000102040F88A08010113193BA90109105F34
:1037100010082424A4FE2322201AF84009115F1F58
:1037200010080601FF01EF298502133F8B04840175
:103730000A1104BFC9010912A02CFF10907E0B12C0
:10374000090EC200091A0444827F0180601F3FFEF7
:10375000129292F2920402121E193B000D130404FD
:10376000FC47240C1427344C44441BF888012AFFDE
:10377000050215F81A1F972B087F2004119F80F06F
:103780001584E45CC4080A1008C8398E0808CC3BCC
:1037900088C011143F103F4D635A46E1050910A03F
:1037A0001270080C12FF102810EC272424E404FCEB
:1037B000C015180708300009113F42424A534847D4
:1037C00070151060028C16FE02F202FE12F8021250
:1037D000FF100B04047E018047300F1027041247AE
:1037E000807F15404042CC2A90010614FF1011162C
:1037F00010000D173F1028603F1010010E3040F0F0
:0400000508000131BD
:00000001FF
